{
  "_format": "hh-sol-artifact-1",
  "contractName": "Refill",
  "sourceName": "contracts/Refill.sol",
  "abi": [
    {
      "inputs": [
        {
          "internalType": "address",
          "name": "_wcanto",
          "type": "address"
        }
      ],
      "stateMutability": "nonpayable",
      "type": "constructor"
    },
    {
      "inputs": [],
      "name": "getBalance",
      "outputs": [
        {
          "internalType": "uint256",
          "name": "",
          "type": "uint256"
        }
      ],
      "stateMutability": "view",
      "type": "function"
    },
    {
      "inputs": [],
      "name": "wrapSend",
      "outputs": [],
      "stateMutability": "nonpayable",
      "type": "function"
    },
    {
      "stateMutability": "payable",
      "type": "receive"
    }
  ],
  "bytecode": "0x60c060405234801561001057600080fd5b5060405161058638038061058683398181016040528101906100329190610117565b732c3f6919cc25cd7559dba05babad838d4a603fbd73ffffffffffffffffffffffffffffffffffffffff1660808173ffffffffffffffffffffffffffffffffffffffff16815250508073ffffffffffffffffffffffffffffffffffffffff1660a08173ffffffffffffffffffffffffffffffffffffffff168152505050610144565b600080fd5b600073ffffffffffffffffffffffffffffffffffffffff82169050919050565b60006100e4826100b9565b9050919050565b6100f4816100d9565b81146100ff57600080fd5b50565b600081519050610111816100eb565b92915050565b60006020828403121561012d5761012c6100b4565b5b600061013b84828501610102565b91505092915050565b60805160a0516104106101766000396000818160850152818161010601526101630152600061014201526104106000f3fe60806040526004361061002d5760003560e01c806312065fe014610039578063480e7a021461006457610034565b3661003457005b600080fd5b34801561004557600080fd5b5061004e61007b565b60405161005b9190610277565b60405180910390f35b34801561007057600080fd5b50610079610083565b005b600047905090565b7f000000000000000000000000000000000000000000000000000000000000000073ffffffffffffffffffffffffffffffffffffffff1663d0e30db0476040518263ffffffff1660e01b81526004016000604051808303818588803b1580156100eb57600080fd5b505af11580156100ff573d6000803e3d6000fd5b50505050507f000000000000000000000000000000000000000000000000000000000000000073ffffffffffffffffffffffffffffffffffffffff1663a9059cbb7f00000000000000000000000000000000000000000000000000000000000000007f000000000000000000000000000000000000000000000000000000000000000073ffffffffffffffffffffffffffffffffffffffff166370a08231306040518263ffffffff1660e01b81526004016101ba91906102d3565b602060405180830381865afa1580156101d7573d6000803e3d6000fd5b505050506040513d601f19601f820116820180604052508101906101fb919061031f565b6040518363ffffffff1660e01b815260040161021892919061034c565b6020604051808303816000875af1158015610237573d6000803e3d6000fd5b505050506040513d601f19601f8201168201806040525081019061025b91906103ad565b50565b6000819050919050565b6102718161025e565b82525050565b600060208201905061028c6000830184610268565b92915050565b600073ffffffffffffffffffffffffffffffffffffffff82169050919050565b60006102bd82610292565b9050919050565b6102cd816102b2565b82525050565b60006020820190506102e860008301846102c4565b92915050565b600080fd5b6102fc8161025e565b811461030757600080fd5b50565b600081519050610319816102f3565b92915050565b600060208284031215610335576103346102ee565b5b60006103438482850161030a565b91505092915050565b600060408201905061036160008301856102c4565b61036e6020830184610268565b9392505050565b60008115159050919050565b61038a81610375565b811461039557600080fd5b50565b6000815190506103a781610381565b92915050565b6000602082840312156103c3576103c26102ee565b5b60006103d184828501610398565b9150509291505056fea264697066735822122066e773496502bc1986bbefa434432045b43995ff25c8e581f051a465aa46493664736f6c63430008110033",
  "linkReferences": {},
  "deployedLinkReferences": {}
}